:020000040800F2
:10000000180B002001010008D70F0008250E00087A
:10001000D50F0008A5010008951D0008000000008C
:100020000000000000000000000000004D14000867
:100030000D0A00080000000091110008891A00084C
:100040001B0100081B0100081B0100081B01000820
:100050001B0100081B0100081B0100081B01000810
:100060001B0100081B0100081B0100081B01000800
:100070001B0100081B0100081B0100081B010008F0
:100080001B0100081B0100081B0100081B010008E0
:10009000711D00081B0100081B0100081B0100085E
:1000A0001B0100081B0100081B0100081B010008C0
:1000B0001B0100081B0100081B0100081B010008B0
:1000C0001B0100081B0100081B0100081B010008A0
:1000D0001B0100081B0100081B0100081B01000890
:1000E000110A00081B010008A51B0008DFF80CD04E
:1000F00000F018F800480047DF1D0008180B00202A
:100100000648804706480047FEE7FEE7FEE7FEE7B1
:10011000FEE7FEE7FEE7FEE7FEE7FEE78D1A0008D2
:10012000ED000008064C074D06E0E06840F00103D2
:1001300094E8070098471034AC42F6D3FFF7DAFF93
:10014000C01E0008E01E000870B501EB020410F8A4
:10015000015B15F0070301D110F8013B2A1106D10C
:1001600010F8012B03E010F8016B01F8016B5B1E26
:10017000F9D12B0705D40023521E0FD401F8013BFF
:10018000FAE710F8013B02F10202A1EB030303E0DE
:1001900013F8015B01F8015B521EF9D5A142D6D3D9
:1001A000002070BDFEE7C1B2000A40EA012070479E
:1001B0002DE9F84F0020ADF80000DFF830A14BF634
:1001C000BF7648F28007484D40F68F78474C48F696
:1001D0000F7BDFF81C910AF1440A2DE0018811F031
:1001E0000F0244490A7030D004EB82000168ADF878
:1001F0000010BDF8001009040BD53E49026802EA60
:10020000080202603C4A087802EB800050F8040CB7
:100210008047BDF8000000060ED53649087804EB8B
:100220008002106800EA0B0010603448097800EB87
:10023000810050F8040C8047DAF800104846A9F80D
:1002400000100904CAD4BDE8F88F216829802988E4
:1002500001F030016980298801F44051298021682A
:10026000314081F4005181F0200139432160008840
:10027000C006206815D400EA0B00206000F008FEDC
:1002800026E02988890401D580F400506988C906D0
:1002900026D46988890601D580F020003843206083
:1002A000D1E7ADF80000BDF80000000506D52068D4
:1002B00000EA0800206001F0CFF909E0BDF8000075
:1002C0000004B9D5206800EA0800206000F02CFF87
:1002D000206829883040C904D3D580F48050D0E705
:1002E00080F01000D5E700008A020020005C00408A
:1002F0006A0100207A020020900100207401002091
:10030000074901EB80000168490407D5016848F6F8
:100310008F7211404CF2800211430160704700005F
:10032000005C0040074901EB80000168490607D5E1
:10033000016848F68F72114048F2C0021143016013
:1003400070470000005C0040054901EB800108682F
:1003500048F68F62104048F28002104308607047F0
:10036000005C00400021084601F01EB810B50020D6
:1003700001F00EF8C0B210BD164910B50A68117828
:1003800001F07F01212922D1134B0228197806D0D0
:1003900001280AD0052810D0032810D017E0022920
:1003A00001D0092913D10D490AE0022901D00529FC
:1003B0000DD1032018700A4902E00A4900E00A49F9
:1003C00029B10020916150828847002010BD022091
:1003D00010BD00007C02002064020020DD1A00082D
:1003E000C9060008210C00083D0C0008014901F075
:1003F000F1B90000C4010020014901F0EBB900008F
:10040000BC01002005490968C978082901D90020E4
:100410007047034A02EBC10101F0DCB97C02002005
:10042000FC010020032901D8022801D902207047CD
:100430000020704770B529490968097801F07F01EB
:10044000212912D1284B0022254E26491D7801284A
:1004500007D00224022813D0042817D0062828D059
:1004600003E0052D03D0022D01D0022070BD012034
:10047000B060062018704A708A70CA7008712BE04C
:100480001C704A708A70CA700C7125E00A2D09D060
:100490000A2018700E230B704A708A70CA70087197
:1004A0004A7119E01C700A704A708A70CA700C7127
:1004B000F6E7022D07D0032D05D0052D03D0062D1C
:1004C00001D0092D08D11C700A704A708A70CA7058
:1004D0000C714A7132607260002070BD7C02002095
:1004E000AC010020700200206402002070B51F499A
:1004F0000020204A88721E4912681F4CC979517227
:1005000020601D485038016848F68F12114041F4B0
:1005100000710160016848F6BF72114081F020014E
:1005200048F280021143016021681020134D89B206
:1005300005EB4101124E88600020317800F0A8FFE1
:100540002168502089B245F811003178002000F070
:10055000CFFF0020FFF7F8FE002000F0B9FF0020D9
:1005600000F076FF07490120086070BDF806002002
:10057000260000207C020020505C0040006000400B
:10058000F8010020540200200348807A002802D09D
:100590000249052008607047F80600205402002038
:1005A0000149042008607047540200207047000091
:1005B00070B526484078032821D1254D2878042895
:1005C00005D007281BD1BDE8704000F05DB8214C74
:1005D00021462068496898B1012806D98002E2685E
:1005E000A0F50060104400F0E5FC002060601A49AE
:1005F000032220602A700A7148708870C87070BD2C
:1006000016480278002AF0D046788378212A06EB33
:100610000323C678007903EB064303EB00600AD09E
:10062000412A0CD0812AE0D10529DED1E0600020EA
:1006300000F0A0FED9E70529D7D1E060D5E705296C
:10064000D3D1E06000F07CFCCFE70000F80600208A
:1006500064020020AC01002070020020D8020020BB
:1006600070B5074D00F0C4FB0024AC7200F0B4FD7F
:1006700001F080FB01F0BAFA0248046070BD00008E
:10068000F8060020540200200C4900200C4A886023
:1006900018310968097D4B070A4906D506231370EE
:1006A0000B7148708870C8707047082313700B7105
:1006B00048708870C87000F0C3BD0000AC01002015
:1006C00064020020700200200E4910B5CC788A78B0
:1006D0000D4B04EB02221A60CA798C7904EB0222DA
:1006E0005A600A4C498A03232370094C521A92B269
:1006F000237110B10748084410BD07480068028202
:10070000002010BDF8060020AC010020640200208B
:1007100070020020D80200207C0200202DE9F04762
:10072000DFF89480254F4FF03009D8F8001001F120
:100730001005088A0E7A08B9042E04D0AC88A042AD
:1007400015D8042614E01E480178012903D0072695
:10075000102038802BE01B4A002112681A4B92B2FD
:1007600003EB42025160A7F8009001701FE00226DF
:10077000844200D90446A968204688478246002062
:1007800000F028FB01462246504601F005FB2146B9
:10079000002000F0ADFE2888001B288068882044D7
:1007A0006880A7F8009009494FF440500880D8F8B5
:1007B00000000672BDE8F0877C0200208C02002059
:1007C00076020020505C0040006000408A02002059
:1007D0002DE9F047224EDFF88C803027356835F858
:1007E000100FA968A9B100B3AC88844200D90446AF
:1007F0002046884781462888001B28806888204436
:100800006880002000F0D6FA01462246484600F0F3
:10081000AFFC288848B114494FF4405008800021AB
:10082000084600F065FEA8F800702888A98888426C
:1008300001D3032001E020B1052031680872BDE832
:10084000F087316806200872084900200968084AC4
:1008500089B202EB41014860A8F80070EFE70000A0
:100860007C0200208C0200208A020020505C0040A4
:1008700000600040F8B55C4C5C4D092620680027FC
:1008800029684278062A05D0AAB1082A4BD00A2A3C
:100890004ED069E00278520666D18078012804D0F3
:1008A000022804D0032804D05EE0C96954E0096A34
:1008B00052E0496A50E04288A2BBC288022A53D162
:1008C00002797ABB0278530601D1838833B102F0F2
:1008D0007F02012A04D0022A0CD045E044493BE0C3
:1008E0008A69407900219047E0B92068807A002821
:1008F000F4D139E0417901F00F0001F070020B06EC
:100900003C4951F8201003D5C1F30111090102E05F
:10091000C1F301310903384B1B78834224D90AB94A
:100920000029DBD120E0007840061DD1334913E0D7
:10093000027802F07F02012A16D1827AA2B142889F
:1009400092B9027982B9C288012A0DD18A694079A7
:100950000021904740B92A4931B12068478281611E
:1009600000208847002006E029682068096940784F
:100970008847032807D021680A8AA2F57F43FF3BF6
:1009800004D10E72F8BD20680672F8BD022809D0A5
:1009900042B10878000621D5C8880090824205D966
:1009A000088213E04FF008000872F8BD0ED22868E4
:1009B000144B90F82C00824201D21F7006E0B2FB6B
:1009C000F0F400FB142008B901201870286890F892
:1009D0002C008882BDE8F840FFF7A0BE0320087213
:1009E000094900030880F8BD7C0200208002002035
:1009F00019180008005C00402C020020AD17000808
:100A0000F1170008760200208A02002070470000DB
:100A100010B54FF40074204600F018F800280CD0F0
:100A200006480068407A800602D5012000F01CFCD0
:100A30002046BDE8104000F003B810BD7C02002045
:100A4000014908607047000014040140064A01464D
:100A500000201268044B0A4014331B680B4202D07A
:100A6000002A00D0012070470004014030B51A4927
:100A70008379026853B30B6893430B600A1D1368B4
:100A80000468A343136002790A441368046823438B
:100A90001360114A083213680468A3431360131DDE
:100AA0001C680568AC431C604479102C05D02144B7
:100AB0000A68006802430A6030BD11680468214377
:100AC0001160196800680143196030BD007908445D
:100AD00001689143016030BD0004014070B50546D6
:100AE0004FF43026304600F089F8042811D1094C23
:100AF000206940F0020020616561206940F04000FB
:100B00002061304600F07AF8216941F6FD7211400B
:100B1000216170BD0020024008490420CA68D20744
:100B200001D001207047CA68520701D502207047E2
:100B3000C968C906FBD503207047000000200240A9
:100B400010B5FFF7CBFF002010BD002070477047A5
:100B50002DE9F04106460E4D0F4688070BD00C4696
:100B60004FF6FC72FF2007EA0201091D01E028553B
:100B7000641CA142FBD8002405E02959304600F04E
:100B800009F8361D241DBC42F7D30020BDE8F081D2
:100B9000D80200202DE9F841064600204FF4005706
:100BA00000900D46384600F029F8042816D10C4C68
:100BB000206940F0010020613580B846384600F0D9
:100BC0001DF8BF1E042806D1B61C280C00963080E4
:100BD000404600F013F8216939402161BDE8F881F1
:100BE00000200240034802494160034941607047C8
:100BF0002301674500200240AB89EFCD00B50346D5
:100C0000FFF78AFF03E000BFFFF786FF5B1E0128A6
:100C100003D0002B00D1052000BD002BF4D1FAE752
:100C200008B104487047044901200968088200207F
:100C300070470000640200207C02002070B504466A
:100C40002048002220490578204B032D02D0062D94
:100C50002FD117E05D689DB1042202701B480A7114
:100C60001968C06819B91A490978412905D0164A86
:100C70005FF0010100F074F91BE0134A0021F9E76D
:100C8000052311E09B68012B01D033B111E007234C
:100C900003700B710120487009E00C4B18331B687E
:100CA0001B7D5B0705D5022303700B714A708A70A8
:100CB000CA700CB1044870BD064906200968088254
:100CC000002070BD6402002070020020AC010020F2
:100CD000D80200207C02002010B58A0721F003040E
:100CE0000649130F21440F228C689A4094438C606C
:100CF0008A68984002438A6010BD000000000140ED
:100D0000F0B5CA78002502F00F03D20601D58A7823
:100D100013430C784FF00F0E0122ECB1D0F80040D5
:100D20000F8802FA05F63740B74211D14FEA850C19
:100D30000EFA0CF724EA070703FA0CF43C43CF78C9
:100D4000282F02D0482F02D002E0466100E0066161
:100D50006D1C082DE4D304600C88FF2C1ED9446858
:100D60005FF0000606F1080702FA07F50F882F402A
:100D7000AF420FD14FEA860C0EFA0CF7BC4303FAD0
:100D80000CF73C43CF78282F00D14561CF78482F0E
:100D900000D10561761C082EE4D34460F0BD024604
:100DA000002092680A4200D00120704741617047DC
:100DB000016170470549096889B201EBC000044927
:100DC00001EB4000008980B270470000505C004099
:100DD000006000400449096889B201EBC000034982
:100DE00031F8100080B27047505C00400060004055
:100DF0000A4810B50168001D0468001D0068081845
:100E00000BD00822064900F071F80549204604225B
:100E1000BDE81040103100F069B810BDE8F7FF1FC1
:100E20008A000020FEE700000A490A20002408701A
:100E30000C310870087100F0D5FB00F003FC00F0E5
:100E4000C1FE4FF6FF70641CA4B28442FBD30024A1
:100E5000F9E70000640200200A4810B501680A4A58
:100E60001140B1F1005F02D04FF0FF3010BD41687A
:100E7000064A91605160006880F308888847002026
:100E800010BD0000003000080000FE2F64020020AA
:100E900010B5134C2068017A022904D0042902D02D
:100EA000062905D015E0FFF739FC2068007A11E02B
:100EB0004178052909D10178490606D1C07800F0AA
:100EC000C7FA08480068006A8047074800688068D9
:100ED0008047082021680872BDE8104000F05AB928
:100EE0007C0200208402002080020020F0B5002354
:100EF0000A24302537261F4611E000BFB4EB107FCF
:100F000002D905EB107C01E006EB107C01F813C060
:100F100001EB430C00015B1C8CF80170DBB29342C7
:100F2000ECD3F0BD0448817A044809B1052100E002
:100F30000121016000F0AABDF80600205402002043
:100F400000F07C41B1F1006F01D0012070470349EE
:100F5000014A0A60FFF7F4BD410B000800000020C1
:100F6000C0F3816301F00100064901EB830111F830
:100F70001030537031F81000000A90700020D070CB
:100F800070470000021E000810B5FFF7DEFD0020CC
:100F900010BD000000F07C42B2F1006F01D00020D3
:100FA0007047034A014B9360FFF7D1BD4F0B000818
:100FB0000000002000F07C42B2F1006F01D001205F
:100FC0007047034A014B5360FFF7C2BD510B000845
:100FD00000000020FEE7704770470000F0B50F21C9
:100FE000C478027801234FF0E026DCB1124C24686B
:100FF000457804F4E064C4F5E064240AC4F104070D
:10100000E1408478BD400C402C4321010B4C11552C
:10101000007800F01F018B40400906EB8000C0F80B
:101020000031F0BD02F01F008340500906EB800044
:10103000C0F88031F0BD00000CED00E000E400E0FD
:101040000249084302490860704700000000FA05A1
:101050000CED00E070B52F4D2868017844784A0601
:1010600006D001F07F00012828D002282BD035E0DF
:10107000092C06D0052C07D0032C0ED0012C14D03F
:101080002CE000F011FC28E0C1787F292ED881786F
:1010900061BB818851BB807A27E0C17801291DD1CD
:1010A0008088D8B900F01CFC17E0C178012915D15F
:1010B000818899B9407A80060AD40FE00B2C0DD1B3
:1010C00000F060FC09E0012C02D0032C03D005E005
:1010D00000F0F6FA01E000F015FC58B10E49204688
:1010E000096849698847032802D018B108200DE033
:1010F00009200BE0094A062000211268084B92B231
:1011000003EB42025160074A3021118029680872BE
:1011100070BD00007C02002080020020505C004076
:10112000006000408C02002010B50F4C2068007A4F
:10113000022811D004280FD0032804D0052802D09B
:10114000072805D008E0FFF743FB2068007A04E099
:1011500006480068C0688047082021680872BDE81A
:10116000104000F017B800007C0200208002002030
:10117000064B521C520803EB410105D031F8043BE9
:1011800020F8023B521EF9D1704700000060004079
:10119000704700000C4810B590F82C10002000F0AB
:1011A00077F90A480068007A082802D0092809D08F
:1011B00006E007494FF48050088006491020088057
:1011C000002010BD012010BDCC0100207C020020B9
:1011D0008A0200208C02002010B5012000F0E6FCFD
:1011E0000648012101600021054A0160031D1960C4
:1011F0004FF4E05111800160002010BD405C0040C0
:1012000088020020044A0029D16901D0014300E08E
:101210008143D1617047000000100240044A002958
:10122000916901D0014300E0814391617047000062
:10123000001002400149086070470000D800424297
:10124000002000F0B3FCBFF34F8F05480168054A4A
:1012500001F4E06111430160BFF34F8FFEE700002E
:101260000CED00E00400FA052DE9F041214C0728BF
:1012700000D0207022781F4D0626052104271E4825
:10128000062A0BD2DFE802F0030C11161E2768684D
:1012900010B12170BDE8F08100F030F82670F9E758
:1012A00000F02CF82770012022E00220607003205B
:1012B0002070EFE76078401E607060780028E9D108
:1012C0002770E7E7026892B242F0100202602170D4
:1012D0000A206070DEE76178491E6170617800293C
:1012E000D8D1016889B221F0100101602670002078
:1012F0006860CFE75C020020405C004010B5064CFF
:10130000206880B220F004002060FFF70BFE4FF44D
:101310003F40206010BD0000405C004038B50446EE
:101320000C48012150F82400FFF778FF094869466E
:10133000203830F81400ADF8000010208DF80300BC
:1013400003208DF80200044850F82400FFF7D8FC71
:1013500038BD0000401E0008A80200200349044ACE
:1013600031F8101052F8200041617047201E00082B
:10137000A8020020044951F82010CA68034B33F832
:1013800010004240CA607047A8020020201E0008DA
:101390000349044A31F8101052F82000FFF7FFBC4F
:1013A000501E0008B80200207FB5044625480D46AF
:1013B000012150F8240040F00100FFF72FFF2CB36B
:1013C0005FF004008DF80F001E4803A9103830F8B4
:1013D0001400ADF80C001C4850F82400FFF790FCF6
:1013E000012D2ED11748403010F81410103810F885
:1013F0001400FFF771FC1348203030F814000090FF
:1014000000208DF804001CB10C2002E02820D9E750
:1014100008208DF8050001258DF806506846FFF775
:1014200025FB0848503010F814008DF808000F20F4
:101430008DF809008DF80A008DF80B5002A8FFF70F
:10144000CDFD7FBD601E0008B8020020704700007F
:10145000F0B50D490D4D48F68F770B78002148F215
:10146000800C09E0CEB205EB860422683A40324394
:1014700042EA0C022260491C9942F3D3034940F02E
:1014800080004C310860F0BD2C020020005C004060
:101490000D4A12683E2992B202EBC0000B4A02EBE1
:1014A000400209D94809C90601D1401E80B24FF453
:1014B000004141EA802004E04808C90700D0401CF0
:1014C0008002106070470000505C00400C600040DB
:1014D000064901EB800108684BF68F72104080F4DA
:1014E000405048F28002104308607047005C0040A2
:1014F000044A126892B202EBC000034A02EB4000B9
:1015000041607047505C0040006000400A4A02EBB6
:101510008002106848F6BF7300EA0300CB0601D5CD
:1015200080F01000890601D580F0200048F280018B
:101530000843106070470000005C00400CB50021BB
:10154000264801910091026842F4803202604FF413
:10155000A063026802F400320092019A521C0192C8
:10156000009A12B9019A9A42F3D10268920333D5D4
:10157000012100911A490A6842F010020A600A68C3
:1015800022F003020A600A6842F002020A6041681F
:10159000416041684160416841F480614160416857
:1015A00021F47C114160416841F4E8114160016817
:1015B00041F08071016001688901FCD5416821F02A
:1015C00003014160416841F0020141604168C1F39B
:1015D00081010229FAD10CBD00910CBD001002401E
:1015E0000020024038B5FFF7FDFA01212020FFF767
:1015F00015FE4FF40070ADF8000003208DF80200D6
:1016000014208DF8030069460C48FFF779FB002091
:1016100000F0CCFAFFF7B8FC012000F0C7FA4FF455
:1016200080242046FFF70CFA054908200C60487119
:10163000012088710846FFF719FA38BD00140140EF
:101640000C00002010B50020FFF7F4FD0121BDE8DB
:101650001040C805FFF7D6BD70B516480068174D95
:1016600081B2154800EB4101098989B200EB4104C0
:101670002868017A09290FD02178017061784170BA
:10168000A088FEF790FD296848802089FEF78BFD31
:1016900029688880A089C880286801210172C088D3
:1016A00028B1FFF7E7F8BDE87040FFF773BDFFF71B
:1016B000D1FCF8E7505C0040006000407C02002054
:1016C0002DE9F04134480068017811F07F0102D023
:1016D000022905D05DE0417A01F0DF01417247E067
:1016E0004188002955D10179F1BB41792C4D21F078
:1016F00080040A06294B55F8242003D5C2F30112B1
:10170000120102E0C2F3013212031E782346A64200
:101710003FD94AB3807A38B308060DD555F824006E
:10172000C0F3011001281DD11846FEF7FBFD20462D
:101730003021FFF7EBFE15E005EB84063068C0F3BF
:10174000013001280ED14BF68F7748F2800894B112
:101750001846FEF7D5FD3068384080F4405040EA26
:10176000080030600F4800E013E0006840698047DF
:101770000020BDE8F0810C4890F82C100020FFF705
:1017800087FE2868384080F4405040EA080028600E
:10179000E8E70220EDE700007C0200202C02002098
:1017A000005C004084020020CC01002010B5074CF2
:1017B00030B1074800680068804720680A3010BDD3
:1017C000216801200882002010BD00007C0200205A
:1017D00084020020054A13685A8A10B10868104430
:1017E00070478888801A1882002070477C02002089
:1017F00010B5074C30B10748006880688047206802
:101800000C3010BD216801200882002010BD0000AE
:101810007C020020840200201F4910B5096860B1D5
:101820001E48002202800A7853060AD002F07F0286
:10183000012A16D0022A16D001E0022008820020D8
:1018400010BD497A8A06027802D542F0020201E010
:1018500002F0FD0249060270D1B210D401F0FE017F
:101860000FE00E4810BD4A7902F00F0113060C4A32
:1018700052F8211007D5C1F3011106E0017841F0BB
:101880000101017003E0C1F301310129F6D00548DF
:10189000006800698047E4E77C02002078020020AD
:1018A000005C0040840200200A4810B500680A4A23
:1018B000C1785278914203D882780AB982880AB1F5
:1018C000022010BD817205480068406880470020F2
:1018D00010BD00007C0200202C02002084020020A9
:1018E000064810B50068417A41F020014172044871
:1018F0000068C0698047002010BD00007C02002005
:101900008402002070B51B4803681B48597921F0F8
:10191000800500EB85000C06046821F0800203D5E9
:10192000C4F30114240102E0C4F301342403134D71
:101930002D7895420FD95A886AB964B19A7A52B112
:101940000906016848F2800207D548F6BF731940BE
:1019500081F0100106E0022070BD4BF68F73194034
:1019600081F4805111430160054800688069804717
:10197000002070BD7C020020005C00402C02002092
:101980008402002010B50E4C0E4A20681268C178FF
:1019900092694079904721688A7A22B118B908790A
:1019A00008B9887808B1022010BD07480068C068EF
:1019B000804720684179C172C1780173002010BD51
:1019C0007C0200208002002084020020F8B52A4911
:1019D000002000900A68284B284C92B2403B00BF80
:1019E00053F82050ADB244F82050401C0828F7D3DB
:1019F00042F48060086040F00100086020F00105BA
:101A00000D601D4A121D10684005FCD54FF6FF30D1
:101A10001060002054F82060B6B243F82060401CEB
:101A20000828F7D345F008000860086880B240F045
:101A300004000860124B18680090186820F003003A
:101A400040F0010018600F48046844F0040404608A
:101A50001468E40401D430BF09E04EF6FF7414604A
:101A60000A6892B222F008020A60009919600168BF
:101A700021F004010160F8BD405C0040D806002060
:101A80000070004010ED00E0704700000F4810B5F6
:101A9000016841F00101016041680D4A1140416057
:101AA00001680C4A11400160016821F48021016045
:101AB000416821F4FE0141604FF41F018160FFF78E
:101AC0003DFD05494FF00060086010BD0010024068
:101AD0000000FFF8FFFFF6FE08ED00E02DE9F047FB
:101AE00006462A482A4CDFF8AC90C27881782B4B06
:101AF00012EB01272760C1798079274A00EB012189
:101B00006160D9F800804FF0090C4FF00000B8F880
:101B1000125016D0012F32D983F800C082F804C0C9
:101B200050709070D070B802E268A0F50060104468
:101B3000FFF730FAA188491B89B2DEB12844BDE81D
:101B4000F087032902D90221197001E083F800C04F
:101B500019781171507012499070D070087021205E
:101B60004870412088700EB10846E8E70320A8F8C5
:101B7000100002E0D9F8000001820020DFE70F2109
:101B80001970117150709070D070F6E7F80600204F
:101B9000AC0100207C0200207002002064020020C2
:101BA000D80200204FF48020FEF74ABF044A0028E4
:101BB0004FF40071104601D0FFF7F8B8FFF7F8B8FE
:101BC0000014014006480549022201600A72064AD3
:101BD0000449C0E90112086800470000F806002027
:101BE0007C020020CC0100203002002038B54FF4E8
:101BF000A060FFF725FA14208DF8000002208DF870
:101C0000010000248DF8024001258DF8035068463C
:101C1000FFF7E4F92A208DF800008DF801408DF8D7
:101C200003506846FFF7DAF938BD00002DE9F041AE
:101C30004A4E88B000243068494D68806888494F12
:101C400039880840000401D5FEF7B2FA688839885F
:101C50004FF6FF380840400504D5C6F800804248DA
:101C600040688047698838880140890402D54DF66C
:101C7000FF71316069880140C80405D54EF6FF70D8
:101C800030600020FFF7F0FA6888398808400005C6
:101C90000BD53648007810B1FFF798FE02E002201D
:101CA000FFF7E2FA4FF2FF70306069883888014030
:101CB000890506D54FF6FF513160297801F1010100
:101CC0002970698801EA0001C80543D54FF6FF6015
:101CD00030602248001D00684FF00002000435D536
:101CE0006868401C68606868032830D91B48001F7A
:101CF000016809072BD4016889B2A96017494FEA26
:101D00000D03443951F82470BFB243F82470641CA9
:101D1000082CF7D3AC6844F00104AC60AC68A4B202
:101D20000460AC6824F00104AC60AC68A4B2046048
:101D300030684005FCD5C6F80080002053F82040EC
:101D4000A4B241F82040401C0828F7D36A6007205D
:101D5000FFF78AFA08B0BDE8F0810000445C00405B
:101D60006801002088020020CC01002058020020D9
:101D7000FFF75CBF05490020086005494FF43F406C
:101D800008800249091F086000207047445C004039
:101D900088020020FEE70000084B10B5521C5208D4
:101DA00003EB410108D003784478801C43EA042304
:101DB00021F8043B521EF6D110BD00000060004027
:101DC00002E008C8121F08C1002AFAD17047704704
:101DD000002001E001C1121F002AFBD17047002042
:101DE000FFF79CFA0020FFF7B9FAFEF7BBFAFEF7FF
:101DF000BDFA012802D0FFF72FF8F8E7FFF714F833
:101E0000F5E7B80B1400E803190032003200E803CC
:101E10001900E8032D00000000022000000440002B
:101E200040008000000100020040000000000200AD
:101E3000040000002000000004000000200000005A
:101E40001000000010000000100000001000000052
:101E5000010000200002010002000001004000100B
:101E60000400000010000000080000004000000016
:101E700040000000200000002000000020000000C2
:101E800001000020000201000200000100400010DB
:101E9000000002000100040004000300030003002E
:101EA00000000D0009000000010008000E000C00F9
:101EB0000600280017000600070017002800280069
:101EC000E01E000800000020D802000048010008C1
:101ED00038200008D802002040080000D01D00086B
:101EE000011413120132011640830411DF1009029C
:101EF0000102030109022413010135C03209041D46
:101F0000FE010204092A0109260509210BFF100B15
:101F1000041A01040309042603531254124D1269D2
:101F200012631272126F12651A6C0412633A740E05
:101F30003A6E1812735A14261233123212201244B7
:101F4000124612559A1A14E1146203401A493C1AB7
:101F5000744A1A72081A61541A20341A6C0A1273DD
:101F60001A680C1220122F12301A78041A380489B9
:101F700002122F1A314E3A2A0C12311A4B301A2CF7
:101F80000812319A36145A676212531A5066C958A9
:101F90001A3A041A4D421A351C12367A3466C902AE
:101FA00049661A385429244952011E13D90F0A329E
:101FB0000804D112302308143320121A26083224C0
:101FC0001361061408ED041408AD051B08B10413D1
:101FD00079031B0835101A25041AF90C1AED041A96
:101FE000050C4132401A4A3832041A4E081944117D
:101FF0001A74081954111A8808321A1AA20832627F
:102000004B0401084B0101BC1A895C0916A41AA1F2
:102010001C41192B0136143801401A449F1A080834
:102020001A14046908DA1004291829081A0C045A29
:082030001804292859040000DE
:04000005080000ED02
:00000001FF
